:1000000006308A006A2E0000FF00030E8301A10063
:100010000A08A0008A010408A2007708A300780853
:10002000A4007908A5007A08A60003170D08031399
:10003000A70003170F080313A80003170C080313E6
:10004000A90003170E080313AA00831383120B1EC3
:100050002B288B1850288B1E2F280B195328220869
:1000600084002308F7002408F8002508F900260872
:10007000FA00270803178D000313280803178F00C1
:100080000313290803178C0003132A0803178E0093
:10009000031320088A00210E8300FF0E7F0E090043
:1000A0008A110A12E8288A110A124F2B8E30F700A3
:1000B0006008F8005F08F900FA01F808031D6A28D3
:1000C0007908F800F9010830F702F808031D6A28DA
:1000D000F70172280310F81B7128F90DF80DF703CA
:1000E0006A28F81308005F080319E328E70063088B
:1000F0000319E328E707031884287F30E702031C6D
:10010000E3280319E32888288130E7070318E32848
:100110006708F700F801F901FA016008EB00EB1736
:100120006108EA006208E9001830E700E801691C8C
:10013000B1286608FA07031CA328F90A031DA3289F
:10014000F80A0319E8176508F907031CAA28F80A32
:100150000319E8176408E100E1176108F8070318BC
:10016000E817E80DF80CF90CFA0CEB0CEA0CE90CAA
:100170000310E70B96280130F7070318E328F81B54
:10018000C828EB0DFA0DF90DF80DF7030319E32854
:10019000EB1FD928FA0A031DD928F90A031DD9280B
:1001A000F80A031DD928F80CF90CFA0CF70A031900
:1001B000E3286008E8006408E806E81FE128F8176B
:1001C000E728F813E728F701F801F901FA01080018
:1001D000AE0A0319AF0A4108E0004008DF005620CC
:1001E0007A08E2007908E1007808E0007708DF008B
:1001F0006F30E6001230E5000330E4007E30E300AB
:1002000073207A08BB007908BA007808B90077082B
:10021000B80083143B08E2003A08E1003908E00026
:100220003808DF003708E6003608E5003508E40046
:100230003408E30080308318E406E901EA0160082D
:10024000E8006408E8065F0803190A2AE700F700D7
:1002500063080319132AE7020319AF29031C6D2948
:100260006408ED00ED176508EC006608EB00EA0194
:100270000310ED0CEC0CEB0CEA0CE70B3729E81F34
:1002800044296914272A69106710691662308400AE
:1002900083133C2A6912E81B5729671C6229ED0C5D
:1002A000EC0CEB0CEA0CF70A0319222A6229ED1B6D
:1002B00065290310EA0DEB0DEC0DED0DF7030319A5
:1002C000222A57296917CF2969136008E800E81F17
:1002D0006B29ED171B2AED131B2A6308E700F700B3
:1002E0005F08E7026008ED00ED176108EC006208A6
:1002F000EB00EA010310ED0CEC0CEB0CEA0CE70B45
:100300007929E81F8629E914272AE9106710E916D8
:100310006630840083133C2AE912E81B9929671C84
:10032000A429ED0CEC0CEB0CEA0CF70A0319222AB9
:10033000A429ED1BA7290310EA0DEB0DEC0DED0D23
:10034000F7030319222A9929E917CF29E913640829
:10035000E800E81FAD29ED171B2AED131B2A6408DE
:10036000ED00ED176508EC006608EB00E81FBC29FE
:10037000ED136915272A6911EA01671062308400BC
:1003800083133C2AE81BE5296008E800671CCF2995
:10039000ED0CEC0CEB0CEA0CF70A0319222AEA1F0D
:1003A000E029EB0A031DE029EC0A031DE029ED0A10
:1003B000031DE029ED0CEC0CEB0CF70A0319222AC3
:1003C000691B6429E91BA629042A8030ED06ED1F6C
:1003D000ED29272A6408E800FA296008E800ED08FA
:1003E000031DFA29EC08031DFA29EB08031DFA295D
:1003F000F7011B2AED1B042A0310EA0DEB0DEC0D8F
:10040000ED0DF70BFA29222AE81F082AED171B2AFF
:10041000ED131B2A6308F7006408ED006508EC0083
:100420006608EB001B2A5F08F7006008ED00610812
:10043000EC006208EB006D08F8006C08F9006B082E
:10044000FA005A2AF701F801F901FA015A2AEA01D9
:10045000EB09EC09ED09EA09EA0A031D352AEB0A62
:10046000031D352AEC0A0319ED0A69184329E91816
:1004700085296919BB29EA290008EB07031C462ACC
:10048000EC0A031D462AED0A0319671484030008C9
:10049000EC07031C4E2AED0A0319671484030008B5
:1004A000801F803AED0703186714691A4A29E91A70
:1004B0008C29C2297A08BF007908BE007808BD00DF
:1004C0007708BC00C130E200AA30E1002630E0002D
:1004D0008630DF003F08E6003E08E5003D08E40006
:1004E0003C08E3005F080319372BEB00630803198E
:1004F000372BEB02031C812A7F30EB070318372BC5
:10050000872A8130EB02031C372B0319372B6B082A
:10051000F700F801F901FA01EA016008E900E917BA
:100520006108E8006208E7001930EB006608E7029E
:100530000318AA2A0130E8020318AA2AE9020318BC
:10054000AA2AEA020318AA2AEA0AE90AE80A6608B5
:10055000E707DC2A6508E8020318C52A0130E9022A
:100560000318C52AEA020318C52AEA0AE90A650837
:10057000E8076608E707031CDC2AE80A031DDC2AF3
:10058000E90A031DDC2AEA0ADC2A64088038E90249
:100590000318DB2A0130EA020318DB2AEA0A64089E
:1005A0008038E9076508E807031CB92AE90A031D32
:1005B000B92AEA0AB92A7A14EB0BDF2AEA2A0310CD
:1005C000E70DE80DE90DEA0D0310FA0DF90DF80D30
:1005D000EC0D962A6C1CF22A0310F80CF90CFA0C9C
:1005E000EC0CF52AF7030319372BEC1B1E2B031019
:1005F000E70DE80DE90DEA0D6608E70203180A2B7E
:100600000130E80203180A2BE90203180A2BEA0258
:10061000031C2D2B6508E8020318152B0130E90295
:100620000318152BEA02031C2D2B64088038E902FD
:1006300003181E2B0130EA02031C2D2BFA0A031D9E
:100640002D2BF90A031D2D2BF80A031D2D2BF70A5C
:100650000319372BF80CF90CFA0C6008EB0064084E
:10066000EB06EB1F352BF8173B2BF8133B2BF70151
:10067000F801F901FA017A08B3007908B2007808A4
:10068000B1007708B0003B08B7003A08B600390857
:10069000B5003808B4008B108A110A122F28F630E2
:1006A0008100C00A0319C10A0B118A110A122F28EE
:1006B0008C20EE33EC32BA12EC3A0A00533084004C
:1006C000831300080319712B0630F800F701F70BAC
:1006D000672BF80B662B7B30F700F70B6D2B800B2D
:1006E000642B08005A0EF039F7000F300805770424
:1006F0008800000008140230F700F70B7D2B802BD8
:100700000000081008000808F700080E0F39F8006C
:1007100008008316081088100811831288100F3003
:1007200083160805F03888008312081500000814A5
:10073000000083237808DA00081000000814A02BBA
:10074000A12B000083237808D90008100F308316EE
:100750000805880083125A0EF700F030F705770875
:100760005904F8007808D900D91B8F2B571C881022
:10077000571888140000081100000810580ED900FE
:100780000F30D9055908DA00722358080F39D900FB
:10079000DA00722308002830C6000C30C700013090
:1007A000C8000630C9000810881008110F308316E1
:1007B000080588000810881008110F308312D30034
:1007C0005E230130C5004508033C031CEF2B0330BA
:1007D000DA0072230530D3005E23C50AE32B023012
:1007E000DA0072230530D3005E23C5014508033CBF
:1007F000031C062C46304507840083130008CA00FA
:10080000D7014A08D8008923C50AF62B8A110A1293
:100810008D2EC5080319112CD7010F30D80089235C
:10082000152CD7010C30D80089238A110A12902E7A
:100830008E30F7004508F7024608F9004708F8002F
:10084000F917F70803192F2C0310F908031D2B2C97
:10085000F80803192F2CF90CF80CF70B242CC61FE1
:10086000362CF809F909F80A0319F90A8A110A124B
:10087000132F540B3C2C3F2C4030D500402CD5017D
:1008800001305302D50755088038D600D7015608E5
:10089000D800892308005208073A0319592C0B3A4B
:1008A00003195E2C063A0319662C023A03196C2CC4
:1008B000712C0130D300D4003924762CD7010130BB
:1008C000D80089230230D3005E23762C0130D30078
:1008D0000230D4003924762CD7011030D800892377
:1008E000762C0130D7005208D800892308000B0865
:1008F000C6008B13831603178C170C14000000001E
:1009000083120313C61B8B170318AE2C03170C0896
:100910007F390313C60003170D080313C70003171D
:100920000F080313C8004608D2004B2447080317DA
:100930008D000313480803178F0003130B08C90029
:100940008B13831603178C170C14000000008312FE
:100950000313C91B8B17C50BAE2CCD2C03170C0D25
:100960000E0D7F390313C60003170D080313C700CC
:1009700003170F080313C8004608D2004B2447088A
:1009800003178D000313480803178F008D0A0319FE
:100990008F0A03100313C50B772C8A110A12342F08
:1009A000CD010408CC004D10831B4D14460EF038C9
:1009B000C800C807E23EC900323ECB0046080F39E6
:1009C000C907C907CB07E93ECA00CA07CA07450ECF
:1009D0000F39CA07CB07CA0DCB0DCB09CB0D450884
:1009E0000F39CB07C80D0730C7000A30CB07CA0341
:1009F000031CF62CCA07C903031CFA2CC907C80339
:100A0000031CFE2CC807C703031C022D47308400BB
:100A1000831307304C054C1384074B300402031931
:100A20004C170008F700031D1D2D4C1B1D2D4C1AE3
:100A30002F2DCC191D2D2030202DCC154C123030EF
:100A4000F707C6010408C5004610831B4614770843
:100A5000D2004B2445088400831346188317840A68
:100A60004C1F0D2D8A110A123B2F83183A2D5A3034
:100A700084008313F701F801F901FA01DA01DB01BF
:100A8000DC01DD0159085804570456040319782D78
:100A90002030DE000310D20DD30DD40DD50DDA0DAC
:100AA000DB0DDC0DDD0D59085D02031D612D5808BD
:100AB0005C02031D612D57085B02031D612D560862
:100AC0005A02031C722D5608DA025708031C570FEE
:100AD000DB025808031C580FDC025908031C590F8D
:100AE000DD020314F70DF80DF90DFA0DDE0B4A2D9A
:100AF0005A088000840A5B088000840A5C08800031
:100B0000840A5D08800008000408CA004908CC0077
:100B10000319A92DAB018B1BAB178B134808E200FF
:100B20004708E1004608E0004508DF00E601E5016E
:100B30002030E4008230E3007320AB1B8B177A086F
:100B4000C8007908C7007808C6007708C500CC0B34
:100B50008A2D4808D5004708D4004608D300450828
:100B6000D2005208B63CD200FA015308D600D3177F
:100B70000310D30CD40CD50CFA0CF90CF80CF70CB0
:100B8000D20BB82DD61FCF2DF709F809F909FA09AC
:100B9000F70A0319F80A0319F90A0319FA0A7A0875
:100BA000C8007908C7007808C6007708C500C81FC4
:100BB000E62DCA03CA16C509C609C709C809C50A68
:100BC0000319C60A0319C70A0319C80A3B30D10022
:100BD0009A30D000CA30CF00CE010A30CC0049088C
:100BE0000319CA0A83144530840083134808D500CA
:100BF0004708D4004608D3004508D2005108D90060
:100C00005008D8004F08D7004E08D6003525780880
:100C1000F708031D1E2E490A4C0203191E2E4A080E
:100C20000319202E0F394C020319182E0318502EC9
:100C3000CA1B502E4A1B202E20304C2E2030CA05B5
:100C4000CA1E2E2ECA124908031DCA037708CA00FD
:100C50002D30D2004B244A08F700CA0149084C0243
:100C6000031D3C2E7708CA002E30D2004B244A08C0
:100C7000F7002030CA0500303030CA1E4C2ECA1290
:100C80004908031DCA037708CA002D30D2004B243F
:100C90004A08F700CA013030F7077708D2004B2422
:100CA00083105108D5005008D4004F08D3004E08D7
:100CB000D200D901D801D7010A30D60035257A08EB
:100CC000D1007908D0007808CF007708CE00CC0B8F
:100CD000F22D080003081F398300AF01AE01B301F4
:100CE000B201B101B001B701B601B501B401BB0158
:100CF000BA01B901B801BF01BE01BD01BC01C1010A
:100D0000C001FF30C20083161F149F141F159F11CE
:100D100007309C0083138312CB2B0130C500092CB4
:100D200083168113C03083128B048B108316010845
:100D3000C03907388100F630831281008B160B16FC
:100D400083161F109F101F159F111F1383121F134F
:100D50009F1783169F1783121F1400308316870076
:100D60008312C200421142088316870083120711C2
:100D70000C3097000030F80006389200FF308316E0
:100D8000920083129B01C2114208831687008312CE
:100D9000871142124208831687008312071600301B
:100DA000F8001F08C73978049F001030F700F70BD0
:100DB000D72E00001F151F19DB2E83161E08831265
:100DC000C3001E08C4001030F700F70BE52E00002A
:100DD000AB018B1BAB178B134408E0004308DF000B
:100DE0005620AB1B8B17AB018B1BAB178B137A08F1
:100DF000E2007908E1007808E0007708DF00DB30E6
:100E0000E600F930E5007E30E4007C30E30073203A
:100E1000AB1B8B177A08C8007908C7007808C60092
:100E20007708C500182C7908AD007808AC002D08AB
:100E3000F9002C08F800F90CF80CF90CF80CF90C76
:100E400078089500F90C790C3039F7001708CF397C
:100E500077049700583003178D0003308F0003107C
:100E600007300313C500772C103084002F08C6000C
:100E70002E08C500D02C0A30D2004B246430D2009A
:100E80004B247430D2004B243A30D2004B248930AA
:100E900084003F08C8003E08C7003D08C6003C0863
:100EA000C5000230C90084252C30D2004B24773095
:100EB000D2004B243A30D2004B24893084003308CE
:100EC000C8003208C7003108C6003008C50002302B
:100ED000C90084250A30D2004B243230D3005E236F
:040EE000CF2E6300AE
:02400E00323F3F
:00000001FF
;PIC16F877A
;CRC=2F25  CREATED="18-May-23 17:41"
