:1000000008308A0000280000FF00030E8301A100D1
:100010000A08A0008A010408A2007708A300780853
:10002000A4007908A5007A08A60003170D08031399
:10003000A70003170F080313A80003170C080313E6
:10004000A90003170E080313AA00831383120B1EC3
:100050002B288B1850288B1E2F280B195328220869
:1000600084002308F7002408F8002508F900260872
:10007000FA00270803178D000313280803178F00C1
:100080000313290803178C0003132A0803178E0093
:10009000031320088A00210E8300FF0E7F0E090043
:1000A0008A110A121D2B8A110A127D2B8E30F7003D
:1000B0007408F8007308F900FA01F808031D6A28AB
:1000C0007908F800F9010830F702F808031D6A28DA
:1000D000F70172280310F81B7128F90DF80DF703CA
:1000E0006A28F813080073080319F2288316A00081
:1000F0007B08031D7D288312F228A00703188B2894
:100100007F30A002031886288312F228031D8A2854
:100110008312F22891288130A007031C91288312B2
:10012000F2282008F700F801F901FA017408A40088
:10013000A4177508A3007608A2001830A000A1013A
:10014000221CBA287E08FA07031CAC28F90A031DF2
:10015000AC28F80A0319A1177D08F907031CB32876
:10016000F80A0319A1177C08F500F5177508F807B8
:100170000318A117A10DF80CF90CFA0CA40CA30C90
:10018000A20C0310A00B9F280130F707031CCA28FC
:100190008312F228F81BD428A40DFA0DF90DF80DDE
:1001A000F70BD4288312F228A41FE728FA0A031DAC
:1001B000E728F90A031DE728F80A031DE728F80CC9
:1001C000F90CFA0CF70A031DE7288312F2287408C9
:1001D000A1007C08A106A11FEF28F817F728F81343
:1001E000F7288312F701F801F901FA018316831247
:1001F000080080308318F4068316A201A30170085A
:10020000A1007408A10683126F080319EF29831651
:10021000A000F70073080319F929A0020319932914
:10022000031C4F297408A600A6177508A5007608B8
:10023000A400A3010310A60CA50CA40CA30CA00BF6
:100240001929A11F262922140F2A22102010221654
:10025000723084008313242A2212A11B3929201C06
:100260004429A60CA50CA40CA30CF70A03190A2A0E
:100270004429A61B47290310A30DA40DA50DA60D07
:10028000F70303190A2A39292217B3292213700800
:10029000A100A11F4D29A617032AA613032A73083C
:1002A000A000F70083126F088316A0027008A60052
:1002B000A6177108A5007208A400A3010310A60CDC
:1002C000A50CA40CA30CA00B5D29A11F6A29A214E4
:1002D0000F2AA2102010A216763084008313242A3D
:1002E000A212A11B7D29201C8829A60CA50CA40CF8
:1002F000A30CF70A03190A2A8829A61B8B290310C5
:10030000A30DA40DA50DA60DF70303190A2A7D2937
:10031000A217B329A2137408A100A11F9129A6173F
:10032000032AA613032A7408A600A6177508A500B9
:100330007608A400A11FA029A61322150F2A2211B6
:10034000A3012010723084008313242AA11BC92921
:100350007008A100201CB329A60CA50CA40CA30CAA
:10036000F70A03190A2AA31FC429A40A031DC429D2
:10037000A50A031DC429A60A031DC429A60CA50CA1
:10038000A40CF70A03190A2A221B4629A21B8A2950
:10039000E8298030A606A61FD1290F2A7408A100DB
:1003A000DE297008A100A608031DDE29A508031D8B
:1003B000DE29A408031DDE29F701032AA61BE8296C
:1003C0000310A30DA40DA50DA60DF70BDE290A2A17
:1003D000A11FEC29A617032AA613032A8312730868
:1003E000F70074088316A6007508A5007608A40017
:1003F000032A83126F08F70070088316A60071089D
:10040000A5007208A4002608F8002508F9002408B1
:10041000FA00422AF701F801F901FA01422AA30180
:10042000A409A509A609A309A30A031D1D2AA40A54
:10043000031D1D2AA50A0319A60A22182529A21898
:10044000692922199F29CE290008A407031C2E2AF6
:10045000A50A031D2E2AA60A0319201484030008E6
:10046000A507031C362AA60A0319201484030008D2
:10047000801F803AA60703182014221A2C29A21ADA
:100480007029A6298312080073080319162B8316F6
:10049000A4007B08031D4E2A8312162BA402031C02
:1004A000582A7F30A407031C572A8312162B622A6E
:1004B0008130A40203185E2A8312162B031D622AC0
:1004C0008312162B2408F700F801F901FA01A301A1
:1004D0007408A200A2177508A1007608A0001930C0
:1004E000A4007E08A0020318852A0130A102031887
:1004F000852AA2020318852AA3020318852AA30AC3
:10050000A20AA10A7E08A007B72A7D08A102031843
:10051000A02A0130A2020318A02AA3020318A02ACD
:10052000A30AA20A7D08A1077E08A007031CB72A18
:10053000A10A031DB72AA20A031DB72AA30AB72AD4
:100540007C088038A2020318B62A0130A3020318DF
:10055000B62AA30A7C088038A2077D08A107031CDD
:10056000942AA20A031D942AA30A942A7A14A40B9B
:10057000BA2AC52A0310A00DA10DA20DA30D0310C8
:10058000FA0DF90DF80DA50D712A251CCD2A0310C1
:10059000F80CF90CFA0CA50CD12AF70BD12A83120E
:1005A000162BA51BFA2A0310A00DA10DA20DA30D59
:1005B0007E08A0020318E62A0130A1020318E62AE9
:1005C000A2020318E62AA302031C0B2B7D08A1023A
:1005D0000318F12A0130A2020318F12AA302031C16
:1005E0000B2B7C088038A2020318FA2A0130A302E0
:1005F000031C0B2BFA0A031D0B2BF90A031D0B2BF3
:10060000F80A031D0B2BF70A031D082B8312162B68
:10061000F80CF90CFA0C7408A4007C08A406A41FBA
:10062000132BF8171B2BF8131B2B8312F701F80160
:10063000F901FA01831683120800AE0A0319AF0A02
:100640004108F4004008F30056207A08F6007908C3
:10065000F5007808F4007708F3006F30FE001230E0
:10066000FD000330FC007E30FB0073207A08BB00E5
:100670007908BA007808B9007708B80083143B08F5
:10068000F2003A08F1003908F0003808EF003708A6
:10069000F6003608F5003508F4003408F300F920B8
:1006A0007A08BF007908BE007808BD007708BC0052
:1006B000C130F600AA30F5002630F4008630F30091
:1006C0003F08FE003E08FD003D08FC003C08FB0022
:1006D00044227A08B3007908B2007808B10077089C
:1006E000B0003B08B7003A08B6003908B500380832
:1006F000B4008B108A110A122F28F6308100C00A2C
:100700000319C10A4108F0004008EF00F20114305B
:10071000F100F801F901F701FA017208031D932BAA
:1007200071080319AD2B1030F3000310EF0DF00D1D
:10073000F70DFA0D72087A02031DA02B71087702DB
:10074000031CA92B7108F702031CFA037208FA02B2
:100750000314F80DF90DF30B952B7708F3007A08C5
:10076000F400F308031DD12BF408031DD12B8310D3
:100770004908F2004808F1004708F0004608EF0079
:100780004508F6004408F5004308F4004208F30069
:10079000F9207A08C9007908C8007808C7007708E6
:1007A000C6000B118A110A122F28D232661D251796
:1007B000323320102000D632EC37BA122E196610D0
:1007C00020004539721D251732332010200049378B
:1007D000F4227239BA122E19660063308400831332
:1007E00000080319012C0130F800F701F70BF62B74
:1007F000F80BF52B4A30F700F70BFC2BFF2B800B87
:10080000F32B08006A0EF039F7000F300805770463
:100810008800000008140C2C081008000808F700D5
:10082000080E0F39F8000800831608108810081108
:10083000831288100F3083160805F0388800831261
:1008400008150000081400000E247808EA000810BB
:100850000000081400000E247808E90008100F308A
:1008600083160805880083126A0EF700F030F7053A
:1008700077086904F8007808E900E91B1A2C671C5E
:100880008810671888140000081100000810680E0E
:10089000E9000F30E9056908EA00022468080F3909
:1008A000E900EA00022408002830D6000C30D70006
:1008B0000130D8000630D9000810881008110F3018
:1008C0008316080588000810881008110F3083125D
:1008D000E300ED230130D5005508033C031C782CC0
:1008E0000330EA0002240530E300ED23D50A6C2C26
:1008F0000230EA0002240530E300ED23D50155085B
:10090000033C031C8F2C56305507840083130008CA
:10091000DA00E7015A08E8001424D50A7F2C8A156A
:100920000A123028D50803199A2CE7010F30E80085
:1009300014249E2CE7010C30E80014248A150A12B6
:1009400035288E30F7005508F7025608F900570889
:10095000F800F917F7080319B82C0310F908031D5C
:10096000B42CF8080319B82CF90CF80CF70BAD2CC3
:10097000D61FBF2CF809F909F80A0319F90A8A15D4
:100980000A12C028640BC52CC82C4030E500C92CC5
:10099000E50101306302E50765088038E600E701FC
:1009A0006608E800142408006208073A0319E22CDC
:1009B0000B3A0319E72C063A0319EF2C023A0319F4
:1009C000F52CFA2C0130E300E400C224FF2CE701EF
:1009D0000130E80014240230E300ED23FF2C013045
:1009E000E3000230E400C224FF2CE7011030E800ED
:1009F0001424FF2C0130E7006208E80014240800EA
:100A00000B08D6008B13831603178C170C140000E9
:100A1000000083120313D61B8B170318372D0317FF
:100A20000C087F390313D60003170D080313D700F2
:100A300003170F080313D8005608E200D424570800
:100A400003178D000313580803178F0003130B08B7
:100A5000D9008B13831603178C170C1400000000A9
:100A600083120313D91B8B17D50B372D562D031764
:100A70000C0D0E0D7F390313D60003170D08031359
:100A8000D70003170F080313D8005608E200D42438
:100A9000570803178D000313580803178F008D0A9A
:100AA00003198F0A03100313D50B002D08008318B8
:100AB0005C2D6A3084008313F701F801F901FA0113
:100AC000EA01EB01EC01ED016908680467046604C2
:100AD00003199A2D2030EE000310E20DE30DE40D12
:100AE000E50DEA0DEB0DEC0DED0D69086D02031D32
:100AF000832D68086C02031D832D67086B02031D9C
:100B0000832D66086A02031C942D6608EA026708B2
:100B1000031C670FEB026808031C680FEC026908EE
:100B2000031C690FED020314F70DF80DF90DFA0D12
:100B3000EE0B6C2D6A088000840A6B088000840A22
:100B40006C088000840A6D08800008000408DA0040
:100B50005908DC000319CB2DAB018B1BAB178B1392
:100B60005808F6005708F5005608F4005508F30039
:100B7000FE01FD012030FC008230FB007320AB1B26
:100B80008B177A08D8007908D7007808D60077083C
:100B9000D500DC0BAC2D5808E5005708E4005608DA
:100BA000E3005508E2006208B63CE200FA0163087F
:100BB000E600E3170310E30CE40CE50CFA0CF90C67
:100BC000F80CF70CE20BDA2DE61FF12DF709F80906
:100BD000F909FA09F70A0319F80A0319F90A0319B6
:100BE000FA0A7A08D8007908D7007808D60077087A
:100BF000D500D81F082EDA03DA16D509D609D70989
:100C0000D809D50A0319D60A0319D70A0319D80A2D
:100C10003B30E1009A30E000CA30DF00DE010A30EC
:100C2000DC0059080319DA0A831455308400831351
:100C30005808E5005708E4005608E3005508E200AC
:100C40006108E9006008E8005F08E7005E08E60068
:100C500057257808F708031D402E590A5C0203192E
:100C6000402E5A080319422E0F395C0203193A2EFE
:100C70000318722EDA1B722E5A1B422E20306E2E53
:100C80002030DA05DA1E502EDA125908031DDA0375
:100C90007708DA002D30E200D4245A08F700DA0190
:100CA00059085C02031D5E2E7708DA002E30E20040
:100CB000D4245A08F7002030DA0500303030DA1E2C
:100CC0006E2EDA125908031DDA037708DA002D3088
:100CD000E200D4245A08F700DA013030F707770829
:100CE000E200D42483106108E5006008E4005F0896
:100CF000E3005E08E200E901E801E7010A30E600EE
:100D000057257A08E1007908E0007808DF007708C5
:080D1000DE00DC0B142E0800CC
:1010000003081F398300AF01AE01B301B201B10182
:10101000B001B701B601B501B401BB01BA01B90114
:10102000B801BF01BE01BD01BC01C101C001C501C4
:10103000C401C301C201C901C801C701C601CD0174
:10104000CC01CB01CA01FF30CE0083161F149F14C0
:101050001F159F1107309C0083138A118312542C93
:101060008A150130D5008A11922C8A1583168113B6
:10107000C03083128B048B1083160108C0390738E7
:101080008100F630831281008B160B1683161F1019
:101090009F101F159F111F1383121F139F17831675
:1010A0009F1783121F140030831687008312CE000F
:1010B0004E114E0883168700831207110C309700DB
:1010C0000030F80006389200FF3083169200831239
:1010D0009B01CE114E0883168700831287114E1292
:1010E0004E0883168700831207160030F8001F0889
:1010F000C73978049F000230F700F70B7D2880285D
:1011000000001F151F19822883161E088312CF00A6
:101110001E08D0000230F700F70B8C288F28000043
:10112000AB018B1BAB178B135008F4004F08F30077
:101130008A1156208A15AB1B8B17AB018B1BAB1783
:101140008B137A08F6007908F5007808F400770820
:10115000F300DB30FE00F930FD007E30FC007C3017
:10116000FB008A1173208A15AB1B8B177A08D800F5
:101170007908D7007808D6007708D5008A11A12C05
:101180008A157908AD007808AC002D08F9002C0804
:10119000F800F90CF80CF90CF80CF90C780895002B
:1011A000F90C790C3039F7001708CF39770497001C
:1011B000AB018B1BAB178B135008F4004F08F300E7
:1011C0008A1156208A15AB1B8B177A08D80079082C
:1011D000D7007808D6007708D500AB018B1BAB177A
:1011E0008B135808F6005708F5005608F400550808
:1011F000F300FE01C030FD007F30FC008830FB00B2
:101200008A1144228A15AB1B8B177A08CD00790806
:10121000CC007808CB007708CA008314AB018B1B85
:10122000AB178B134D08F2004C08F1004B08F0008F
:101230004A08EF003308F6003208F5003108F400E0
:101240003008F3008A11F9208A15AB1B8B177A0836
:10125000C5007908C4007808C3007708C200AB0154
:101260008B1BAB178B13F601F501F4017E30F300F5
:101270004508FE004408FD004308FC004208FB004E
:101280008A1173208A15AB1B8B177A08D400790852
:10129000D3007808D2007708D1000130E300E400E1
:1012A0008A11C2248A15D53003178D0003308F00B0
:1012B000031004300313D5008A1100258A158930E4
:1012C00084004D08D8004C08D7004B08D6004A08C7
:1012D000D5000230D9008A11A6258A152030E200F7
:1012E0008A11D4248A152030E2008A11D4248A1568
:1012F0002030E2008A11D4248A150330D500FA3058
:10130000E3008A11ED238A15D50B7F290C30E2000A
:101310008A11D4248A150130E300E4008A11C22422
:101320008A15DB3003178D0003308F000310053062
:101330000313D5008A1100258A15893084003308EB
:10134000D8003208D7003108D6003008D500023066
:10135000D9008A11A6258A152030E2008A11D424EA
:101360008A152030E2008A11D4248A150330D50072
:10137000FA30E3008A11ED238A15D50BB8290C3019
:10138000E2008A11D4248A150130E300E4008A11B6
:10139000C2248A15E13003178D0003308F0003103B
:1013A00004300313D5008A1100258A158930840082
:1013B0004508D8004408D7004308D6004208D500A5
:1013C0000230D9008A11A6258A152030E2008A1140
:1013D000D4248A152030E2008A11D4248A152030C2
:1013E000E2008A11D4248A150330D500FA30E300D4
:1013F0008A11ED238A15D50BF6290C30E2008A11EB
:10140000D4248A150130E300E4008A11C2248A152D
:10141000E73003178D0003308F00031007300313EC
:10142000D5008A1100258A15893084004908D80022
:101430004808D7004708D6004608D5000230D90032
:101440008A11A6258A150330D500FA30E3008A11E7
:10145000ED238A15D50B252A0C30E2008A11D424FD
:061460008A1575286300E7
:02400E00313F40
:00000001FF
;PIC16F877A
;CRC=BC4F  CREATED="18-May-23 18:34"
