:1000000004308A00F42C0000FF00030E8301A100DD
:100010000A08A0008A010408A2007708A300780853
:10002000A4007908A5007A08A60003170D08031399
:10003000A70003170F080313A80003170C080313E6
:10004000A90003170E080313AA00831383120B1EC3
:100050002B288B1850288B1E2F280B195328220869
:1000600084002308F7002408F8002508F900260872
:10007000FA00270803178D000313280803178F00C1
:100080000313290803178C0003132A0803178E0093
:10009000031320088A00210E8300FF0E7F0E090043
:1000A0008A110A1256288A110A127A28AC0A0319F0
:1000B000AD0A8B108A110A122F288E30F7005708CC
:1000C000F8005608F900FA01F808031D71287908AC
:1000D000F800F9010830F702F808031D7128F7014C
:1000E00079280310F81B7828F90DF80DF70371280B
:1000F000F81308003C308100B60A36080A3C031D9C
:1001000073292E082C02D4002D08D5002F08031CBB
:100110002F0FD5025508D7005408D6005D207A0865
:10012000D9007908D8007808D7007708D600DD0113
:10013000DC014030DB008030DA0056080319622908
:10014000E2005A0803196229E202031CAC287F303E
:10015000E20703186229B2288130E202031C6229F7
:10016000031962296208F700F801F901FA01E101B7
:100170005708E000E0175808DF005908DE00193082
:10018000E2005D08DE020318D5280130DF02031803
:10019000D528E0020318D528E1020318D528E10A82
:1001A000E00ADF0A5D08DE0707295C08DF020318A2
:1001B000F0280130E0020318F028E1020318F028CB
:1001C000E10AE00A5C08DF075D08DE07031C072977
:1001D000DF0A031D0729E00A031D0729E10A072991
:1001E0005B088038E002031806290130E102031899
:1001F0000629E10A5B088038E0075C08DF07031C7A
:10020000E428E00A031DE428E10AE4287A14E20B5A
:100210000A2915290310DE0DDF0DE00DE10D031095
:10022000FA0DF90DF80DE30DC128631C1D2903100B
:10023000F80CF90CFA0CE30C2029F70303196229D6
:10024000E31B49290310DE0DDF0DE00DE10D5D0814
:10025000DE02031835290130DF0203183529E002D8
:1002600003183529E102031C58295C08DF02031832
:1002700040290130E00203184029E102031C5829FB
:100280005B088038E002031849290130E102031CB1
:100290005829FA0A031D5829F90A031D5829F80A92
:1002A000031D5829F70A03196229F80CF90CFA0CF6
:1002B0005708E2005B08E206E21F6029F81766298A
:1002C000F8136629F701F801F901FA017A08B50077
:1002D0007908B4007808B3007708B2002D08AF00A1
:1002E0002C08AE00B6010B118A110A122F288C209F
:1002F000EE33EC32BA12EC3A0A0048308400831331
:100300000008031991290130F800F701F70B86293D
:10031000F80B85294A30F700F70B8C298F29800BC1
:10032000832908004F0EF039F7000F3008057704D5
:100330008800000008149C29081008000808F7002D
:10034000080E0F39F80008008316081088100811ED
:10035000831288100F3083160805F0388800831246
:1003600008150000081400009E217808CF0008102E
:100370000000081400009E217808CE0008100F30FD
:1003800083160805880083124F0EF700F030F7053A
:1003900077084E04F8007808CE00CE1BAA294C1C22
:1003A00088104C18881400000811000008104D0E29
:1003B000CE000F30CE054E08CF0092214D080F39E8
:1003C000CE00CF00922108002830BB000C30BC00CA
:1003D0000130BD000630BE000810881008110F3033
:1003E0008316080588000810881008110F30831242
:1003F000C8007D210130BA003A08033C031C082ADA
:100400000330CF0092210530C8007D21BA0AFC29B3
:100410000230CF0092210530C8007D21BA013A0890
:10042000033C031C1F2A3B303A0784008313000857
:10043000BF00CC013F08CD00A421BA0A0F2A8A11BF
:100440000A120C2DBA0803192A2ACC010F30CD004C
:10045000A4212E2ACC010C30CD00A4218A110A122D
:100460000F2D47080319A12ACF004B080319A12A11
:10047000CF070318422A7F30CF02031CA12A031999
:10048000A12A462A8130CF070318A12A4F08F70076
:10049000F801F901FA014808D300D3174908D2003E
:1004A0004A08D1001830CF00D001511C6F2A4E08E5
:1004B000FA07031C612AF90A031D612AF80A0319C5
:1004C000D0174D08F907031C682AF80A0319D0173A
:1004D0004C08C900C9174908F8070318D017D00DF0
:1004E000F80CF90CFA0CD30CD20CD10C0310CF0B76
:1004F000542A0130F7070318A12AF81B862AD30DC6
:10050000FA0DF90DF80DF7030319A12AD31F972A45
:10051000FA0A031D972AF90A031D972AF80A031DF0
:10052000972AF80CF90CFA0CF70A0319A12A4808C3
:10053000D0004C08D006D01F9F2AF817A52AF81320
:10054000A52AF701F801F901FA0108008E30F70039
:100550003A08F7023B08F9003C08F800F917F708D9
:100560000319BD2A0310F908031DB92AF808031955
:10057000BD2AF90CF80CF70BB22ABB1FC42AF809E4
:10058000F909F80A0319F90A8A110A128E2D490B82
:10059000CA2ACD2A4030CA00CE2ACA0101304802F8
:1005A000CA074A088038CB00CC014B08CD00A421F3
:1005B00008004708073A0319E72A0B3A0319EC2AFF
:1005C000063A0319F42A023A0319FA2AFF2A0130DB
:1005D000C800C900C722042BCC010130CD00A421E2
:1005E0000230C8007D21042B0130C8000230C90050
:1005F000C722042BCC011030CD00A421042B0130E4
:10060000CC004708CD00A42108000B08BB008B13C9
:10061000831603178C170C140000000083120313B9
:10062000BB1B8B1703183C2B03170C087F390313D4
:10063000BB0003170D080313BC0003170F080313B7
:10064000BD003B08C700D9223C0803178D000313E7
:100650003D0803178F0003130B08BE008B1383168E
:1006600003178C170C140000000083120313BE1B29
:100670008B17BA0B3C2B5B2B03170C0D0E0D7F3920
:100680000313BB0003170D080313BC0003170F0867
:100690000313BD003B08C700D9223C0803178D0097
:1006A00003133D0803178F008D0A03198F0A0310E7
:1006B0000313BA0B052B8A110A12AF2DC2010408CD
:1006C000C1004210831B42143B0EF038BD00BD0731
:1006D000E23EBE00323EC0003B080F39BE07BE07F7
:1006E000C007E93EBF00BF07BF073A0E0F39BF077B
:1006F000C007BF0DC00DC009C00D3A080F39C007B3
:10070000BD0D0730BC000A30C007BF03031C842B9B
:10071000BF07BE03031C882BBE07BD03031C8C2B25
:10072000BD07BC03031C902B3C30840083130730AF
:1007300041054113840740300402031941170008A2
:10074000F700031DAB2B411BAB2B411ABD2BC1196D
:10075000AB2B2030AE2BC11541123030F707BB0157
:100760000408BA003B10831B3B147708C700D9224A
:100770003A08840083133B188317840A411F9B2B7C
:100780008A110A12B62D8318C82B4F3084008313A8
:10079000F701F801F901FA01CF01D001D101D2012D
:1007A0004E084D044C044B040319062C2030D30092
:1007B0000310C70DC80DC90DCA0DCF0DD00DD10D39
:1007C000D20D4E085202031DEF2B4D085102031D9E
:1007D000EF2B4C085002031DEF2B4B084F02031C5C
:1007E000002C4B08CF024C08031C4C0FD0024D08C4
:1007F000031C4D0FD1024E08031C4E0FD2020314EE
:10080000F70DF80DF90DFA0DD30BD82B4F0880001A
:10081000840A50088000840A51088000840A520823
:10082000800008000408BF003E08C1000319312CF5
:100830003D08CA003C08C9003B08C8003A08C70088
:10084000CE01CD012030CC008230CB0031227A089D
:10085000BD007908BC007808BB007708BA00C10B5E
:10086000182C3D08CA003C08C9003B08C8003A08DB
:10087000C7004708B63CC700FA014808CB00C817B4
:100880000310C80CC90CCA0CFA0CF90CF80CF70CC4
:10089000C70B402CCB1F572CF709F809F909FA09A7
:1008A000F70A0319F80A0319F90A0319FA0A7A0868
:1008B000BD007908BC007808BB007708BA00BD1FEE
:1008C0006E2CBF03BF16BA09BB09BC09BD09BA0A21
:1008D0000319BB0A0319BC0A0319BD0A3B30C60041
:1008E0009A30C500CA30C400C3010A30C1003E08B6
:1008F0000319BF0A83143A30840083133D08CA00E9
:100900003C08C9003B08C8003A08C7004608CE00AA
:100910004508CD004408CC004308CB00C323780829
:10092000F708031DA62C3E0A41020319A62C3F0816
:100930000319A82C0F3941020319A02C0318D82C35
:10094000BF1BD82C3F1BA82C2030D42C2030BF0537
:10095000BF1EB62CBF123E08031DBF037708BF00A1
:100960002D30C700D9223F08F700BF013E084102E1
:10097000031DC42C7708BF002E30C700D9223F08C2
:10098000F7002030BF0500303030BF1ED42CBF121E
:100990003E08031DBF037708BF002D30C700D922D2
:1009A0003F08F700BF013030F7077708C700D922AA
:1009B00083104608CA004508C9004408C800430817
:1009C000C700CE01CD01CC010A30CB00C3237A0889
:1009D000C6007908C5007808C4007708C300C10BB9
:1009E0007A2C8A110A12CC2D03081F398300AD011D
:1009F000AC01AF01AE01B501B401B301B201B60162
:100A0000FF30B70083161F149F141F159F11073066
:100A10009C0083138312E4290130BA00222A831632
:100A20008113C03083128B048B1083160108C039E8
:100A3000073881003C30831281008B160B16831619
:100A40001F109F101F159F111F1383121F139F1735
:100A500083169F1783121F1400308316870083129A
:100A6000B7003711370883168700831207110C303F
:100A700097000030F80006389200FF30831692008D
:100A800083129B01B71137088316870083128711E1
:100A90003712370883168700831207160030F800D4
:100AA0001F08C73978049F000230F700F70B562D56
:100AB000592D00001F151F195B2D83161E08831268
:100AC000B8001E08B9000230F700F70B652D682D3D
:100AD0000000AB018B1BAB178B133908D70038080C
:100AE000D6005D20AB1B8B177A08CA007908C900B5
:100AF0007808C8007708C700DB30CE00F930CD0099
:100B00007E30CC007C30CB0031227A08BD007908E1
:100B1000BC007808BB007708BA00A62A7908B100A3
:100B20007808B0003108F9003008F800F90CF80C2A
:100B3000F90CF80CF90C78089500F90C790C30399F
:100B4000F7001708CF3977049700773003178D0027
:100B500001308F00031007300313BA00052B10304B
:100B600084002D08BB002C08BA005E2B0A30C70099
:100B7000D9227730C700D9223A30C700D92289302C
:100B800084003508BD003408BC003308BB003208BF
:100B9000BA000230BE00122C0A30C700D92232300F
:080BA000C8007D214E2D630009
:02400E00313F40
:00000001FF
;PIC16F877A
;CRC=6B91  CREATED="18-May-23 17:39"
